{
  "abi": [
    {
      "inputs": [
        {
          "internalType": "address",
          "name": "timelock_",
          "type": "address"
        },
        {
          "internalType": "address",
          "name": "uni_",
          "type": "address"
        }
      ],
      "payable": false,
      "stateMutability": "nonpayable",
      "type": "constructor"
    },
    {
      "anonymous": false,
      "inputs": [
        {
          "indexed": false,
          "internalType": "uint256",
          "name": "id",
          "type": "uint256"
        }
      ],
      "name": "ProposalCanceled",
      "type": "event"
    },
    {
      "anonymous": false,
      "inputs": [
        {
          "indexed": false,
          "internalType": "uint256",
          "name": "id",
          "type": "uint256"
        },
        {
          "indexed": false,
          "internalType": "address",
          "name": "proposer",
          "type": "address"
        },
        {
          "indexed": false,
          "internalType": "address[]",
          "name": "targets",
          "type": "address[]"
        },
        {
          "indexed": false,
          "internalType": "uint256[]",
          "name": "values",
          "type": "uint256[]"
        },
        {
          "indexed": false,
          "internalType": "string[]",
          "name": "signatures",
          "type": "string[]"
        },
        {
          "indexed": false,
          "internalType": "bytes[]",
          "name": "calldatas",
          "type": "bytes[]"
        },
        {
          "indexed": false,
          "internalType": "uint256",
          "name": "startBlock",
          "type": "uint256"
        },
        {
          "indexed": false,
          "internalType": "uint256",
          "name": "endBlock",
          "type": "uint256"
        },
        {
          "indexed": false,
          "internalType": "string",
          "name": "description",
          "type": "string"
        }
      ],
      "name": "ProposalCreated",
      "type": "event"
    },
    {
      "anonymous": false,
      "inputs": [
        {
          "indexed": false,
          "internalType": "uint256",
          "name": "id",
          "type": "uint256"
        }
      ],
      "name": "ProposalExecuted",
      "type": "event"
    },
    {
      "anonymous": false,
      "inputs": [
        {
          "indexed": false,
          "internalType": "uint256",
          "name": "id",
          "type": "uint256"
        },
        {
          "indexed": false,
          "internalType": "uint256",
          "name": "eta",
          "type": "uint256"
        }
      ],
      "name": "ProposalQueued",
      "type": "event"
    },
    {
      "anonymous": false,
      "inputs": [
        {
          "indexed": false,
          "internalType": "address",
          "name": "voter",
          "type": "address"
        },
        {
          "indexed": false,
          "internalType": "uint256",
          "name": "proposalId",
          "type": "uint256"
        },
        {
          "indexed": false,
          "internalType": "bool",
          "name": "support",
          "type": "bool"
        },
        {
          "indexed": false,
          "internalType": "uint256",
          "name": "votes",
          "type": "uint256"
        }
      ],
      "name": "VoteCast",
      "type": "event"
    },
    {
      "constant": true,
      "inputs": [],
      "name": "BALLOT_TYPEHASH",
      "outputs": [
        {
          "internalType": "bytes32",
          "name": "",
          "type": "bytes32"
        }
      ],
      "payable": false,
      "stateMutability": "view",
      "type": "function"
    },
    {
      "constant": true,
      "inputs": [],
      "name": "DOMAIN_TYPEHASH",
      "outputs": [
        {
          "internalType": "bytes32",
          "name": "",
          "type": "bytes32"
        }
      ],
      "payable": false,
      "stateMutability": "view",
      "type": "function"
    },
    {
      "constant": false,
      "inputs": [
        {
          "internalType": "uint256",
          "name": "proposalId",
          "type": "uint256"
        }
      ],
      "name": "cancel",
      "outputs": [],
      "payable": false,
      "stateMutability": "nonpayable",
      "type": "function"
    },
    {
      "constant": false,
      "inputs": [
        {
          "internalType": "uint256",
          "name": "proposalId",
          "type": "uint256"
        },
        {
          "internalType": "bool",
          "name": "support",
          "type": "bool"
        }
      ],
      "name": "castVote",
      "outputs": [],
      "payable": false,
      "stateMutability": "nonpayable",
      "type": "function"
    },
    {
      "constant": false,
      "inputs": [
        {
          "internalType": "uint256",
          "name": "proposalId",
          "type": "uint256"
        },
        {
          "internalType": "bool",
          "name": "support",
          "type": "bool"
        },
        {
          "internalType": "uint8",
          "name": "v",
          "type": "uint8"
        },
        {
          "internalType": "bytes32",
          "name": "r",
          "type": "bytes32"
        },
        {
          "internalType": "bytes32",
          "name": "s",
          "type": "bytes32"
        }
      ],
      "name": "castVoteBySig",
      "outputs": [],
      "payable": false,
      "stateMutability": "nonpayable",
      "type": "function"
    },
    {
      "constant": false,
      "inputs": [
        {
          "internalType": "uint256",
          "name": "proposalId",
          "type": "uint256"
        }
      ],
      "name": "execute",
      "outputs": [],
      "payable": true,
      "stateMutability": "payable",
      "type": "function"
    },
    {
      "constant": true,
      "inputs": [
        {
          "internalType": "uint256",
          "name": "proposalId",
          "type": "uint256"
        }
      ],
      "name": "getActions",
      "outputs": [
        {
          "internalType": "address[]",
          "name": "targets",
          "type": "address[]"
        },
        {
          "internalType": "uint256[]",
          "name": "values",
          "type": "uint256[]"
        },
        {
          "internalType": "string[]",
          "name": "signatures",
          "type": "string[]"
        },
        {
          "internalType": "bytes[]",
          "name": "calldatas",
          "type": "bytes[]"
        }
      ],
      "payable": false,
      "stateMutability": "view",
      "type": "function"
    },
    {
      "constant": true,
      "inputs": [
        {
          "internalType": "uint256",
          "name": "proposalId",
          "type": "uint256"
        },
        {
          "internalType": "address",
          "name": "voter",
          "type": "address"
        }
      ],
      "name": "getReceipt",
      "outputs": [
        {
          "components": [
            {
              "internalType": "bool",
              "name": "hasVoted",
              "type": "bool"
            },
            {
              "internalType": "bool",
              "name": "support",
              "type": "bool"
            },
            {
              "internalType": "uint96",
              "name": "votes",
              "type": "uint96"
            }
          ],
          "internalType": "struct GovernorAlpha.Receipt",
          "name": "",
          "type": "tuple"
        }
      ],
      "payable": false,
      "stateMutability": "view",
      "type": "function"
    },
    {
      "constant": true,
      "inputs": [
        {
          "internalType": "address",
          "name": "",
          "type": "address"
        }
      ],
      "name": "latestProposalIds",
      "outputs": [
        {
          "internalType": "uint256",
          "name": "",
          "type": "uint256"
        }
      ],
      "payable": false,
      "stateMutability": "view",
      "type": "function"
    },
    {
      "constant": true,
      "inputs": [],
      "name": "name",
      "outputs": [
        {
          "internalType": "string",
          "name": "",
          "type": "string"
        }
      ],
      "payable": false,
      "stateMutability": "view",
      "type": "function"
    },
    {
      "constant": true,
      "inputs": [],
      "name": "proposalCount",
      "outputs": [
        {
          "internalType": "uint256",
          "name": "",
          "type": "uint256"
        }
      ],
      "payable": false,
      "stateMutability": "view",
      "type": "function"
    },
    {
      "constant": true,
      "inputs": [],
      "name": "proposalMaxOperations",
      "outputs": [
        {
          "internalType": "uint256",
          "name": "",
          "type": "uint256"
        }
      ],
      "payable": false,
      "stateMutability": "pure",
      "type": "function"
    },
    {
      "constant": true,
      "inputs": [],
      "name": "proposalThreshold",
      "outputs": [
        {
          "internalType": "uint256",
          "name": "",
          "type": "uint256"
        }
      ],
      "payable": false,
      "stateMutability": "pure",
      "type": "function"
    },
    {
      "constant": true,
      "inputs": [
        {
          "internalType": "uint256",
          "name": "",
          "type": "uint256"
        }
      ],
      "name": "proposals",
      "outputs": [
        {
          "internalType": "uint256",
          "name": "id",
          "type": "uint256"
        },
        {
          "internalType": "address",
          "name": "proposer",
          "type": "address"
        },
        {
          "internalType": "uint256",
          "name": "eta",
          "type": "uint256"
        },
        {
          "internalType": "uint256",
          "name": "startBlock",
          "type": "uint256"
        },
        {
          "internalType": "uint256",
          "name": "endBlock",
          "type": "uint256"
        },
        {
          "internalType": "uint256",
          "name": "forVotes",
          "type": "uint256"
        },
        {
          "internalType": "uint256",
          "name": "againstVotes",
          "type": "uint256"
        },
        {
          "internalType": "bool",
          "name": "canceled",
          "type": "bool"
        },
        {
          "internalType": "bool",
          "name": "executed",
          "type": "bool"
        }
      ],
      "payable": false,
      "stateMutability": "view",
      "type": "function"
    },
    {
      "constant": false,
      "inputs": [
        {
          "internalType": "address[]",
          "name": "targets",
          "type": "address[]"
        },
        {
          "internalType": "uint256[]",
          "name": "values",
          "type": "uint256[]"
        },
        {
          "internalType": "string[]",
          "name": "signatures",
          "type": "string[]"
        },
        {
          "internalType": "bytes[]",
          "name": "calldatas",
          "type": "bytes[]"
        },
        {
          "internalType": "string",
          "name": "description",
          "type": "string"
        }
      ],
      "name": "propose",
      "outputs": [
        {
          "internalType": "uint256",
          "name": "",
          "type": "uint256"
        }
      ],
      "payable": false,
      "stateMutability": "nonpayable",
      "type": "function"
    },
    {
      "constant": false,
      "inputs": [
        {
          "internalType": "uint256",
          "name": "proposalId",
          "type": "uint256"
        }
      ],
      "name": "queue",
      "outputs": [],
      "payable": false,
      "stateMutability": "nonpayable",
      "type": "function"
    },
    {
      "constant": true,
      "inputs": [],
      "name": "quorumVotes",
      "outputs": [
        {
          "internalType": "uint256",
          "name": "",
          "type": "uint256"
        }
      ],
      "payable": false,
      "stateMutability": "pure",
      "type": "function"
    },
    {
      "constant": true,
      "inputs": [
        {
          "internalType": "uint256",
          "name": "proposalId",
          "type": "uint256"
        }
      ],
      "name": "state",
      "outputs": [
        {
          "internalType": "enum GovernorAlpha.ProposalState",
          "name": "",
          "type": "uint8"
        }
      ],
      "payable": false,
      "stateMutability": "view",
      "type": "function"
    },
    {
      "constant": true,
      "inputs": [],
      "name": "timelock",
      "outputs": [
        {
          "internalType": "contract TimelockInterface",
          "name": "",
          "type": "address"
        }
      ],
      "payable": false,
      "stateMutability": "view",
      "type": "function"
    },
    {
      "constant": true,
      "inputs": [],
      "name": "uni",
      "outputs": [
        {
          "internalType": "contract UniInterface",
          "name": "",
          "type": "address"
        }
      ],
      "payable": false,
      "stateMutability": "view",
      "type": "function"
    },
    {
      "constant": true,
      "inputs": [],
      "name": "votingDelay",
      "outputs": [
        {
          "internalType": "uint256",
          "name": "",
          "type": "uint256"
        }
      ],
      "payable": false,
      "stateMutability": "pure",
      "type": "function"
    },
    {
      "constant": true,
      "inputs": [],
      "name": "votingPeriod",
      "outputs": [
        {
          "internalType": "uint256",
          "name": "",
          "type": "uint256"
        }
      ],
      "payable": false,
      "stateMutability": "pure",
      "type": "function"
    }
  ],
  "bytecode": {
    "object": "0x60806040523480156200001157600080fd5b50604051620032bf380380620032bf833981016040819052620000349162000079565b600080546001600160a01b039384166001600160a01b03199182161790915560018054929093169116179055620000e4565b80516200007381620000ca565b92915050565b600080604083850312156200008d57600080fd5b60006200009b858562000066565b9250506020620000ae8582860162000066565b9150509250929050565b60006001600160a01b03821662000073565b620000d581620000b8565b8114620000e157600080fd5b50565b6131cb80620000f46000396000f3fe6080604052600436106101355760003560e01c80634634c61f116100ab578063da95691a1161006f578063da95691a1461033b578063ddf0b0091461035b578063deaaa7cc1461037b578063e23a9a5214610390578063edc9af95146103bd578063fe0d94c1146103d257610135565b80634634c61f146102ba5780637bdbe4d0146102da578063b58131b0146102ef578063d33219b414610304578063da35c6641461032657610135565b806320606b70116100fd57806320606b70146101fe57806324bc1a6414610213578063328dd982146102285780633932abb1146102585780633e4f49e61461026d57806340e58ee51461029a57610135565b8063013cf08b1461013a57806302a251a31461017857806306fdde031461019a57806315373e3d146101bc57806317977c61146101de575b600080fd5b34801561014657600080fd5b5061015a610155366004612088565b6103e5565b60405161016f99989796959493929190612f81565b60405180910390f35b34801561018457600080fd5b5061018d61043e565b60405161016f9190612cee565b3480156101a657600080fd5b506101af610445565b60405161016f9190612daa565b3480156101c857600080fd5b506101dc6101d73660046120e0565b610477565b005b3480156101ea57600080fd5b5061018d6101f9366004611f05565b610486565b34801561020a57600080fd5b5061018d610498565b34801561021f57600080fd5b5061018d6104af565b34801561023457600080fd5b50610248610243366004612088565b6104be565b60405161016f9493929190612ca1565b34801561026457600080fd5b5061018d61074d565b34801561027957600080fd5b5061028d610288366004612088565b610752565b60405161016f9190612d9c565b3480156102a657600080fd5b506101dc6102b5366004612088565b6108dd565b3480156102c657600080fd5b506101dc6102d5366004612110565b610b31565b3480156102e657600080fd5b5061018d610cc7565b3480156102fb57600080fd5b5061018d610ccc565b34801561031057600080fd5b50610319610cdb565b60405161016f9190612d8e565b34801561033257600080fd5b5061018d610cea565b34801561034757600080fd5b5061018d610356366004611f2b565b610cf0565b34801561036757600080fd5b506101dc610376366004612088565b611112565b34801561038757600080fd5b5061018d611380565b34801561039c57600080fd5b506103b06103ab3660046120a6565b61138c565b60405161016f9190612ecb565b3480156103c957600080fd5b506103196113fb565b6101dc6103e0366004612088565b61140a565b6003602052600090815260409020805460018201546002830154600784015460088501546009860154600a870154600b9097015495966001600160a01b0390951695939492939192909160ff8082169161010090041689565b619d805b90565b60405180604001604052806016815260200175556e697377617020476f7665726e6f7220416c70686160501b81525081565b6104823383836115cf565b5050565b60046020526000908152604090205481565b6040516104a490612b92565b604051809103902081565b6a211654585005212800000090565b6060806060806000600360008781526020019081526020016000209050806003018160040182600501836006018380548060200260200160405190810160405280929190818152602001828054801561054057602002820191906000526020600020905b81546001600160a01b03168152600190910190602001808311610522575b505050505093508280548060200260200160405190810160405280929190818152602001828054801561059257602002820191906000526020600020905b81548152602001906001019080831161057e575b5050505050925081805480602002602001604051908101604052809291908181526020016000905b828210156106655760008481526020908190208301805460408051601f60026000196101006001871615020190941693909304928301859004850281018501909152818152928301828280156106515780601f1061062657610100808354040283529160200191610651565b820191906000526020600020905b81548152906001019060200180831161063457829003601f168201915b5050505050815260200190600101906105ba565b50505050915080805480602002602001604051908101604052809291908181526020016000905b828210156107375760008481526020908190208301805460408051601f60026000196101006001871615020190941693909304928301859004850281018501909152818152928301828280156107235780601f106106f857610100808354040283529160200191610723565b820191906000526020600020905b81548152906001019060200180831161070657829003601f168201915b50505050508152602001906001019061068c565b5050505090509450945094509450509193509193565b600190565b600081600254101580156107665750600082115b61078b5760405162461bcd60e51b815260040161078290612ddb565b60405180910390fd5b6000828152600360205260409020600b81015460ff16156107b05760029150506108d8565b806007015443116107c55760009150506108d8565b806008015443116107da5760019150506108d8565b80600a015481600901541115806107fb57506107f46104af565b8160090154105b1561080a5760039150506108d8565b600281015461081d5760049150506108d8565b600b810154610100900460ff16156108395760079150506108d8565b6002810154600054604080516360d143f160e11b815290516108c293926001600160a01b03169163c1a287e2916004808301926020929190829003018186803b15801561088557600080fd5b505afa158015610899573d6000803e3d6000fd5b505050506040513d601f19601f820116820180604052506108bd9190810190612035565b611798565b42106108d25760069150506108d8565b60059150505b919050565b60006108e882610752565b905060078160078111156108f857fe5b14156109165760405162461bcd60e51b815260040161078290612e9b565b600082815260036020526040902061092c610ccc565b60018054838201546001600160a01b039182169263782d6fe192909116906109559043906117c4565b6040518363ffffffff1660e01b8152600401610972929190612bc3565b60206040518083038186803b15801561098a57600080fd5b505afa15801561099e573d6000803e3d6000fd5b505050506040513d601f19601f820116820180604052506109c29190810190612178565b6001600160601b0316106109e85760405162461bcd60e51b815260040161078290612e3b565b600b8101805460ff1916600117905560005b6003820154811015610af4576000546003830180546001600160a01b039092169163591fcdfe919084908110610a2c57fe5b6000918252602090912001546004850180546001600160a01b039092169185908110610a5457fe5b9060005260206000200154856005018581548110610a6e57fe5b90600052602060002001866006018681548110610a8757fe5b9060005260206000200187600201546040518663ffffffff1660e01b8152600401610ab6959493929190612c60565b600060405180830381600087803b158015610ad057600080fd5b505af1158015610ae4573d6000803e3d6000fd5b5050600190920191506109fa9050565b507f789cf55be980739dad1d0699b93b58e806b51c9d96619bfa8fe0a28abaa7b30c83604051610b249190612cee565b60405180910390a1505050565b6000604051610b3f90612b92565b604080519182900382208282019091526016825275556e697377617020476f7665726e6f7220416c70686160501b6020909201919091527fa5e0cfcfbed4e8af9bbb6c62a3dcbd52dedb58a723ee69f4d714b41681f2c447610b9f6117ec565b30604051602001610bb39493929190612cfc565b6040516020818303038152906040528051906020012090506000604051610bd990612b9d565b604051908190038120610bf29189908990602001612d31565b60405160208183030381529060405280519060200120905060008282604051602001610c1f929190612b61565b604051602081830303815290604052805190602001209050600060018288888860405160008152602001604052604051610c5c9493929190612d59565b6020604051602081039080840390855afa158015610c7e573d6000803e3d6000fd5b5050604051601f1901519150506001600160a01b038116610cb15760405162461bcd60e51b815260040161078290612e7b565b610cbc818a8a6115cf565b505050505050505050565b600a90565b6a084595161401484a00000090565b6000546001600160a01b031681565b60025481565b6000610cfa610ccc565b600180546001600160a01b03169063782d6fe1903390610d1b9043906117c4565b6040518363ffffffff1660e01b8152600401610d38929190612ba8565b60206040518083038186803b158015610d5057600080fd5b505afa158015610d64573d6000803e3d6000fd5b505050506040513d601f19601f82011682018060405250610d889190810190612178565b6001600160601b031611610dae5760405162461bcd60e51b815260040161078290612e6b565b84518651148015610dc0575083518651145b8015610dcd575082518651145b610de95760405162461bcd60e51b815260040161078290612e2b565b8551610e075760405162461bcd60e51b815260040161078290612e5b565b610e0f610cc7565b86511115610e2f5760405162461bcd60e51b815260040161078290612e0b565b336000908152600460205260409020548015610eac576000610e5082610752565b90506001816007811115610e6057fe5b1415610e7e5760405162461bcd60e51b815260040161078290612e8b565b6000816007811115610e8c57fe5b1415610eaa5760405162461bcd60e51b815260040161078290612dfb565b505b6000610eba436108bd61074d565b90506000610eca826108bd61043e565b6002805460010190559050610edd61194f565b604051806101a001604052806002548152602001336001600160a01b03168152602001600081526020018b81526020018a815260200189815260200188815260200184815260200183815260200160008152602001600081526020016000151581526020016000151581525090508060036000836000015181526020019081526020016000206000820151816000015560208201518160010160006101000a8154816001600160a01b0302191690836001600160a01b03160217905550604082015181600201556060820151816003019080519060200190610fc09291906119c4565b5060808201518051610fdc916004840191602090910190611a29565b5060a08201518051610ff8916005840191602090910190611a70565b5060c08201518051611014916006840191602090910190611ac9565b5060e082015181600701556101008201518160080155610120820151816009015561014082015181600a015561016082015181600b0160006101000a81548160ff02191690831515021790555061018082015181600b0160016101000a81548160ff02191690831515021790555090505080600001516004600083602001516001600160a01b03166001600160a01b03168152602001908152602001600020819055507f7d84a6263ae0d98d3329bd7b46bb4e8d6f98cd35a7adb45c274c8b7fd5ebd5e08160000151338c8c8c8c89898e6040516110fa99989796959493929190612ed9565b60405180910390a15193505050505b95945050505050565b600461111d82610752565b600781111561112857fe5b146111455760405162461bcd60e51b815260040161078290612dbb565b600081815260036020908152604080832083548251630d48571f60e31b8152925191949361119e9342936001600160a01b0390931692636a42b8f892600480840193919291829003018186803b15801561088557600080fd5b905060005b60038301548110156113465761133e8360030182815481106111c157fe5b6000918252602090912001546004850180546001600160a01b0390921691849081106111e957fe5b906000526020600020015485600501848154811061120357fe5b600091825260209182902001805460408051601f60026000196101006001871615020190941693909304928301859004850281018501909152818152928301828280156112915780601f1061126657610100808354040283529160200191611291565b820191906000526020600020905b81548152906001019060200180831161127457829003601f168201915b50505050508660060185815481106112a557fe5b600091825260209182902001805460408051601f60026000196101006001871615020190941693909304928301859004850281018501909152818152928301828280156113335780601f1061130857610100808354040283529160200191611333565b820191906000526020600020905b81548152906001019060200180831161131657829003601f168201915b5050505050866117f0565b6001016111a3565b50600282018190556040517f9a2e42fd6722813d69113e7d0079d3d940171428df7373df9c7f7617cfda289290610b249085908490613007565b6040516104a490612b9d565b611394611b22565b5060008281526003602090815260408083206001600160a01b0385168452600c018252918290208251606081018452905460ff80821615158352610100820416151592820192909252620100009091046001600160601b0316918101919091525b92915050565b6001546001600160a01b031681565b600561141582610752565b600781111561142057fe5b1461143d5760405162461bcd60e51b815260040161078290612dcb565b6000818152600360205260408120600b8101805461ff001916610100179055905b6003820154811015611593576000546004830180546001600160a01b0390921691630825f38f91908490811061149057fe5b90600052602060002001548460030184815481106114aa57fe5b6000918252602090912001546004860180546001600160a01b0390921691869081106114d257fe5b90600052602060002001548660050186815481106114ec57fe5b9060005260206000200187600601878154811061150557fe5b9060005260206000200188600201546040518763ffffffff1660e01b8152600401611534959493929190612c60565b6000604051808303818588803b15801561154d57600080fd5b505af1158015611561573d6000803e3d6000fd5b50505050506040513d6000823e601f3d908101601f1916820160405261158a9190810190612053565b5060010161145e565b507f712ae1383f79ac853f8d882153778e0260ef8f03b504e2866e0593e04d2b291f826040516115c39190612cee565b60405180910390a15050565b60016115da83610752565b60078111156115e557fe5b146116025760405162461bcd60e51b815260040161078290612eab565b60008281526003602090815260408083206001600160a01b0387168452600c8101909252909120805460ff161561164b5760405162461bcd60e51b815260040161078290612deb565b600154600783015460405163782d6fe160e01b81526000926001600160a01b03169163782d6fe191611681918a91600401612bc3565b60206040518083038186803b15801561169957600080fd5b505afa1580156116ad573d6000803e3d6000fd5b505050506040513d601f19601f820116820180604052506116d19190810190612178565b905083156116fa576116f08360090154826001600160601b0316611798565b6009840155611717565b61171183600a0154826001600160601b0316611798565b600a8401555b8154600160ff199091161761ff00191661010085151502176dffffffffffffffffffffffff00001916620100006001600160601b038316021782556040517f877856338e13f63d0c36822ff0ef736b80934cd90574a3a5bc9262c39d217c4690611788908890889088908690612bd1565b60405180910390a1505050505050565b6000828201838110156117bd5760405162461bcd60e51b815260040161078290612e1b565b9392505050565b6000828211156117e65760405162461bcd60e51b815260040161078290612ebb565b50900390565b4690565b6000546040516001600160a01b039091169063f2b065379061181e9088908890889088908890602001612c06565b604051602081830303815290604052805190602001206040518263ffffffff1660e01b81526004016118509190612cee565b60206040518083038186803b15801561186857600080fd5b505afa15801561187c573d6000803e3d6000fd5b505050506040513d601f19601f820116820180604052506118a09190810190612017565b156118bd5760405162461bcd60e51b815260040161078290612e4b565b600054604051633a66f90160e01b81526001600160a01b0390911690633a66f901906118f59088908890889088908890600401612c06565b602060405180830381600087803b15801561190f57600080fd5b505af1158015611923573d6000803e3d6000fd5b505050506040513d601f19601f820116820180604052506119479190810190612035565b505050505050565b604051806101a001604052806000815260200160006001600160a01b031681526020016000815260200160608152602001606081526020016060815260200160608152602001600081526020016000815260200160008152602001600081526020016000151581526020016000151581525090565b828054828255906000526020600020908101928215611a19579160200282015b82811115611a1957825182546001600160a01b0319166001600160a01b039091161782556020909201916001909101906119e4565b50611a25929150611b42565b5090565b828054828255906000526020600020908101928215611a64579160200282015b82811115611a64578251825591602001919060010190611a49565b50611a25929150611b66565b828054828255906000526020600020908101928215611abd579160200282015b82811115611abd5782518051611aad918491602090910190611b80565b5091602001919060010190611a90565b50611a25929150611bed565b828054828255906000526020600020908101928215611b16579160200282015b82811115611b165782518051611b06918491602090910190611b80565b5091602001919060010190611ae9565b50611a25929150611c10565b604080516060810182526000808252602082018190529181019190915290565b61044291905b80821115611a255780546001600160a01b0319168155600101611b48565b61044291905b80821115611a255760008155600101611b6c565b828054600181600116156101000203166002900490600052602060002090601f016020900481019282601f10611bc157805160ff1916838001178555611a64565b82800160010185558215611a645791820182811115611a64578251825591602001919060010190611a49565b61044291905b80821115611a25576000611c078282611c33565b50600101611bf3565b61044291905b80821115611a25576000611c2a8282611c33565b50600101611c16565b50805460018160011615610100020316600290046000825580601f10611c595750611c77565b601f016020900490600052602060002090810190611c779190611b66565b50565b80356113f581613150565b600082601f830112611c9657600080fd5b8135611ca9611ca48261303c565b613015565b91508181835260208401935060208101905083856020840282011115611cce57600080fd5b60005b83811015611cfa5781611ce48882611c7a565b8452506020928301929190910190600101611cd1565b5050505092915050565b600082601f830112611d1557600080fd5b8135611d23611ca48261303c565b81815260209384019390925082018360005b83811015611cfa5781358601611d4b8882611e5a565b8452506020928301929190910190600101611d35565b600082601f830112611d7257600080fd5b8135611d80611ca48261303c565b81815260209384019390925082018360005b83811015611cfa5781358601611da88882611e5a565b8452506020928301929190910190600101611d92565b600082601f830112611dcf57600080fd5b8135611ddd611ca48261303c565b91508181835260208401935060208101905083856020840282011115611e0257600080fd5b60005b83811015611cfa5781611e188882611e44565b8452506020928301929190910190600101611e05565b80356113f581613164565b80516113f581613164565b80356113f58161316d565b80516113f58161316d565b600082601f830112611e6b57600080fd5b8135611e79611ca48261305d565b91508082526020830160208301858383011115611e9557600080fd5b611ea0838284613104565b50505092915050565b600082601f830112611eba57600080fd5b8151611ec8611ca48261305d565b91508082526020830160208301858383011115611ee457600080fd5b611ea0838284613110565b80356113f581613176565b80516113f58161317f565b600060208284031215611f1757600080fd5b6000611f238484611c7a565b949350505050565b600080600080600060a08688031215611f4357600080fd5b853567ffffffffffffffff811115611f5a57600080fd5b611f6688828901611c85565b955050602086013567ffffffffffffffff811115611f8357600080fd5b611f8f88828901611dbe565b945050604086013567ffffffffffffffff811115611fac57600080fd5b611fb888828901611d61565b935050606086013567ffffffffffffffff811115611fd557600080fd5b611fe188828901611d04565b925050608086013567ffffffffffffffff811115611ffe57600080fd5b61200a88828901611e5a565b9150509295509295909350565b60006020828403121561202957600080fd5b6000611f238484611e39565b60006020828403121561204757600080fd5b6000611f238484611e4f565b60006020828403121561206557600080fd5b815167ffffffffffffffff81111561207c57600080fd5b611f2384828501611ea9565b60006020828403121561209a57600080fd5b6000611f238484611e44565b600080604083850312156120b957600080fd5b60006120c58585611e44565b92505060206120d685828601611c7a565b9150509250929050565b600080604083850312156120f357600080fd5b60006120ff8585611e44565b92505060206120d685828601611e2e565b600080600080600060a0868803121561212857600080fd5b60006121348888611e44565b955050602061214588828901611e2e565b945050604061215688828901611eef565b935050606061216788828901611e44565b925050608061200a88828901611e44565b60006020828403121561218a57600080fd5b6000611f238484611efa565b60006121a283836121d1565b505060200190565b60006117bd8383612373565b60006121a28383612359565b6121cb816130dc565b82525050565b6121cb816130a4565b60006121e582613097565b6121ef818561309b565b93506121fa83613085565b8060005b838110156122285781516122128882612196565b975061221d83613085565b9250506001016121fe565b509495945050505050565b600061223e82613097565b612248818561309b565b93508360208202850161225a85613085565b8060005b85811015612294578484038952815161227785826121aa565b945061228283613085565b60209a909a019992505060010161225e565b5091979650505050505050565b60006122ac82613097565b6122b6818561309b565b9350836020820285016122c885613085565b8060005b8581101561229457848403895281516122e585826121aa565b94506122f083613085565b60209a909a01999250506001016122cc565b600061230d82613097565b612317818561309b565b935061232283613085565b8060005b8381101561222857815161233a88826121b6565b975061234583613085565b925050600101612326565b6121cb816130af565b6121cb81610442565b6121cb61236e82610442565b610442565b600061237e82613097565b612388818561309b565b9350612398818560208601613110565b6123a18161313c565b9093019392505050565b6000815460018116600081146123c857600181146123ee5761242d565b607f60028304166123d9818761309b565b60ff198416815295505060208501925061242d565b600282046123fc818761309b565b95506124078561308b565b60005b828110156124265781548882015260019091019060200161240a565b8701945050505b505092915050565b6121cb816130e3565b6121cb816130ee565b600061245460448361309b565b7f476f7665726e6f72416c7068613a3a71756575653a2070726f706f73616c206381527f616e206f6e6c79206265207175657565642069662069742069732073756363656020820152631959195960e21b604082015260600192915050565b60006124c060458361309b565b7f476f7665726e6f72416c7068613a3a657865637574653a2070726f706f73616c81527f2063616e206f6e6c7920626520657865637574656420696620697420697320716020820152641d595d595960da1b604082015260600192915050565b600061252d6002836108d8565b61190160f01b815260020192915050565b600061254b60298361309b565b7f476f7665726e6f72416c7068613a3a73746174653a20696e76616c69642070728152681bdc1bdcd85b081a5960ba1b602082015260400192915050565b6000612596602d8361309b565b7f476f7665726e6f72416c7068613a3a5f63617374566f74653a20766f7465722081526c185b1c9958591e481d9bdd1959609a1b602082015260400192915050565b60006125e560598361309b565b7f476f7665726e6f72416c7068613a3a70726f706f73653a206f6e65206c69766581527f2070726f706f73616c207065722070726f706f7365722c20666f756e6420616e60208201527f20616c72656164792070656e64696e672070726f706f73616c00000000000000604082015260600192915050565b600061266a60288361309b565b7f476f7665726e6f72416c7068613a3a70726f706f73653a20746f6f206d616e7981526720616374696f6e7360c01b602082015260400192915050565b60006126b460118361309b565b706164646974696f6e206f766572666c6f7760781b815260200192915050565b60006126e16043836108d8565b7f454950373132446f6d61696e28737472696e67206e616d652c75696e7432353681527f20636861696e49642c6164647265737320766572696679696e67436f6e74726160208201526263742960e81b604082015260430192915050565b600061274c6027836108d8565b7f42616c6c6f742875696e743235362070726f706f73616c49642c626f6f6c20738152667570706f72742960c81b602082015260270192915050565b600061279560448361309b565b7f476f7665726e6f72416c7068613a3a70726f706f73653a2070726f706f73616c81527f2066756e6374696f6e20696e666f726d6174696f6e206172697479206d69736d6020820152630c2e8c6d60e31b604082015260600192915050565b6000612801602f8361309b565b7f476f7665726e6f72416c7068613a3a63616e63656c3a2070726f706f7365722081526e18589bdd99481d1a1c995cda1bdb19608a1b602082015260400192915050565b600061285260448361309b565b7f476f7665726e6f72416c7068613a3a5f71756575654f725265766572743a207081527f726f706f73616c20616374696f6e20616c7265616479207175657565642061746020820152632065746160e01b604082015260600192915050565b60006128be602c8361309b565b7f476f7665726e6f72416c7068613a3a70726f706f73653a206d7573742070726f81526b7669646520616374696f6e7360a01b602082015260400192915050565b600061290c603f8361309b565b7f476f7665726e6f72416c7068613a3a70726f706f73653a2070726f706f73657281527f20766f7465732062656c6f772070726f706f73616c207468726573686f6c6400602082015260400192915050565b600061296b602f8361309b565b7f476f7665726e6f72416c7068613a3a63617374566f746542795369673a20696e81526e76616c6964207369676e617475726560881b602082015260400192915050565b60006129bc60588361309b565b7f476f7665726e6f72416c7068613a3a70726f706f73653a206f6e65206c69766581527f2070726f706f73616c207065722070726f706f7365722c20666f756e6420616e60208201527f20616c7265616479206163746976652070726f706f73616c0000000000000000604082015260600192915050565b6000612a4160368361309b565b7f476f7665726e6f72416c7068613a3a63616e63656c3a2063616e6e6f742063618152751b98d95b08195e1958dd5d1959081c1c9bdc1bdcd85b60521b602082015260400192915050565b6000612a99602a8361309b565b7f476f7665726e6f72416c7068613a3a5f63617374566f74653a20766f74696e67815269081a5cc818db1bdcd95960b21b602082015260400192915050565b6000612ae560158361309b565b747375627472616374696f6e20756e646572666c6f7760581b815260200192915050565b80516060830190612b1a8482612350565b506020820151612b2d6020850182612350565b506040820151612b406040850182612b58565b50505050565b6121cb816130ca565b6121cb816130f9565b6121cb816130d0565b6000612b6c82612520565b9150612b788285612362565b602082019150612b888284612362565b5060200192915050565b60006113f5826126d4565b60006113f58261273f565b60408101612bb682856121c2565b6117bd6020830184612359565b60408101612bb682856121d1565b60808101612bdf82876121d1565b612bec6020830186612359565b612bf96040830185612350565b6111096060830184612b4f565b60a08101612c1482886121d1565b612c216020830187612359565b8181036040830152612c338186612373565b90508181036060830152612c478185612373565b9050612c566080830184612359565b9695505050505050565b60a08101612c6e82886121d1565b612c7b6020830187612359565b8181036040830152612c8d81866123ab565b90508181036060830152612c4781856123ab565b60808082528101612cb281876121da565b90508181036020830152612cc68186612302565b90508181036040830152612cda81856122a1565b90508181036060830152612c568184612233565b602081016113f58284612359565b60808101612d0a8287612359565b612d176020830186612359565b612d246040830185612359565b61110960608301846121d1565b60608101612d3f8286612359565b612d4c6020830185612359565b611f236040830184612350565b60808101612d678287612359565b612d746020830186612b46565b612d816040830185612359565b6111096060830184612359565b602081016113f58284612435565b602081016113f5828461243e565b602080825281016117bd8184612373565b602080825281016113f581612447565b602080825281016113f5816124b3565b602080825281016113f58161253e565b602080825281016113f581612589565b602080825281016113f5816125d8565b602080825281016113f58161265d565b602080825281016113f5816126a7565b602080825281016113f581612788565b602080825281016113f5816127f4565b602080825281016113f581612845565b602080825281016113f5816128b1565b602080825281016113f5816128ff565b602080825281016113f58161295e565b602080825281016113f5816129af565b602080825281016113f581612a34565b602080825281016113f581612a8c565b602080825281016113f581612ad8565b606081016113f58284612b09565b6101208101612ee8828c612359565b612ef5602083018b6121c2565b8181036040830152612f07818a6121da565b90508181036060830152612f1b8189612302565b90508181036080830152612f2f81886122a1565b905081810360a0830152612f438187612233565b9050612f5260c0830186612359565b612f5f60e0830185612359565b818103610100830152612f728184612373565b9b9a5050505050505050505050565b6101208101612f90828c612359565b612f9d602083018b6121d1565b612faa604083018a612359565b612fb76060830189612359565b612fc46080830188612359565b612fd160a0830187612359565b612fde60c0830186612359565b612feb60e0830185612350565b612ff9610100830184612350565b9a9950505050505050505050565b60408101612bb68285612359565b60405181810167ffffffffffffffff8111828210171561303457600080fd5b604052919050565b600067ffffffffffffffff82111561305357600080fd5b5060209081020190565b600067ffffffffffffffff82111561307457600080fd5b506020601f91909101601f19160190565b60200190565b60009081526020902090565b5190565b90815260200190565b60006113f5826130be565b151590565b806108d881613146565b6001600160a01b031690565b60ff1690565b6001600160601b031690565b60006113f5825b60006113f5826130a4565b60006113f5826130b4565b60006113f5826130d0565b82818337506000910152565b60005b8381101561312b578181015183820152602001613113565b83811115612b405750506000910152565b601f01601f191690565b60088110611c7757fe5b613159816130a4565b8114611c7757600080fd5b613159816130af565b61315981610442565b613159816130ca565b613159816130d056fea365627a7a723158200aeda7a367f089552ec3d5c0501ebfef7e8080d0134a2cdc5ab770aa2b57a66a6c6578706572696d656e74616cf564736f6c63430005100040",
    "linkReferences": {}
  },
  "methodIdentifiers": {
    "BALLOT_TYPEHASH()": "deaaa7cc",
    "DOMAIN_TYPEHASH()": "20606b70",
    "cancel(uint256)": "40e58ee5",
    "castVote(uint256,bool)": "15373e3d",
    "castVoteBySig(uint256,bool,uint8,bytes32,bytes32)": "4634c61f",
    "execute(uint256)": "fe0d94c1",
    "getActions(uint256)": "328dd982",
    "getReceipt(uint256,address)": "e23a9a52",
    "latestProposalIds(address)": "17977c61",
    "name()": "06fdde03",
    "proposalCount()": "da35c664",
    "proposalMaxOperations()": "7bdbe4d0",
    "proposalThreshold()": "b58131b0",
    "proposals(uint256)": "013cf08b",
    "propose(address[],uint256[],string[],bytes[],string)": "da95691a",
    "queue(uint256)": "ddf0b009",
    "quorumVotes()": "24bc1a64",
    "state(uint256)": "3e4f49e6",
    "timelock()": "d33219b4",
    "uni()": "edc9af95",
    "votingDelay()": "3932abb1",
    "votingPeriod()": "02a251a3"
  },
  "id": 2
}